{
  "_format": "hh-sol-artifact-1",
  "contractName": "VoiceKeyRecover",
  "sourceName": "contracts/VoiceKeyRecover.sol",
  "abi": [
    {
      "inputs": [
        {
          "internalType": "address",
          "name": "_ens",
          "type": "address"
        },
        {
          "internalType": "uint256",
          "name": "_wordSize",
          "type": "uint256"
        },
        {
          "internalType": "uint256",
          "name": "_maxMsgSize",
          "type": "uint256"
        }
      ],
      "stateMutability": "nonpayable",
      "type": "constructor"
    },
    {
      "inputs": [],
      "name": "getOwner",
      "outputs": [
        {
          "internalType": "address",
          "name": "",
          "type": "address"
        }
      ],
      "stateMutability": "view",
      "type": "function"
    },
    {
      "inputs": [
        {
          "internalType": "address",
          "name": "",
          "type": "address"
        }
      ],
      "name": "isRegistered",
      "outputs": [
        {
          "internalType": "bool",
          "name": "",
          "type": "bool"
        }
      ],
      "stateMutability": "view",
      "type": "function"
    },
    {
      "inputs": [
        {
          "internalType": "address",
          "name": "walletAddr",
          "type": "address"
        },
        {
          "internalType": "string",
          "name": "oldENS",
          "type": "string"
        },
        {
          "internalType": "string",
          "name": "newENS",
          "type": "string"
        },
        {
          "internalType": "bytes32",
          "name": "messageHash",
          "type": "bytes32"
        },
        {
          "internalType": "bytes",
          "name": "proof",
          "type": "bytes"
        }
      ],
      "name": "recover",
      "outputs": [],
      "stateMutability": "nonpayable",
      "type": "function"
    },
    {
      "inputs": [
        {
          "internalType": "address",
          "name": "walletAddr",
          "type": "address"
        },
        {
          "internalType": "bytes32",
          "name": "featureHash",
          "type": "bytes32"
        },
        {
          "internalType": "bytes",
          "name": "commitment",
          "type": "bytes"
        }
      ],
      "name": "register",
      "outputs": [],
      "stateMutability": "nonpayable",
      "type": "function"
    },
    {
      "inputs": [
        {
          "internalType": "string",
          "name": "ensName",
          "type": "string"
        }
      ],
      "name": "resolveENS",
      "outputs": [
        {
          "internalType": "address",
          "name": "",
          "type": "address"
        }
      ],
      "stateMutability": "view",
      "type": "function"
    },
    {
      "inputs": [
        {
          "internalType": "bytes32",
          "name": "",
          "type": "bytes32"
        }
      ],
      "name": "usedMessageHashes",
      "outputs": [
        {
          "internalType": "bool",
          "name": "",
          "type": "bool"
        }
      ],
      "stateMutability": "view",
      "type": "function"
    },
    {
      "inputs": [
        {
          "internalType": "bytes",
          "name": "commitment",
          "type": "bytes"
        },
        {
          "internalType": "bytes32",
          "name": "featureHash",
          "type": "bytes32"
        },
        {
          "internalType": "bytes",
          "name": "message",
          "type": "bytes"
        },
        {
          "internalType": "bytes32",
          "name": "messageHash",
          "type": "bytes32"
        },
        {
          "internalType": "bytes",
          "name": "proof",
          "type": "bytes"
        }
      ],
      "name": "verify",
      "outputs": [
        {
          "internalType": "bool",
          "name": "",
          "type": "bool"
        }
      ],
      "stateMutability": "view",
      "type": "function"
    },
    {
      "inputs": [
        {
          "internalType": "address",
          "name": "",
          "type": "address"
        }
      ],
      "name": "voiceDataOfWallet",
      "outputs": [
        {
          "internalType": "address",
          "name": "owner",
          "type": "address"
        },
        {
          "internalType": "bytes32",
          "name": "featureHash",
          "type": "bytes32"
        },
        {
          "internalType": "bytes",
          "name": "commitment",
          "type": "bytes"
        }
      ],
      "stateMutability": "view",
      "type": "function"
    }
  ],
  "bytecode": "0x60806040523480156200001157600080fd5b506040516200228938038062002289833981810160405281019062000037919062000138565b81818160018190555080600281905550505082600660006101000a81548173ffffffffffffffffffffffffffffffffffffffff021916908373ffffffffffffffffffffffffffffffffffffffff16021790555050505062000194565b600080fd5b600073ffffffffffffffffffffffffffffffffffffffff82169050919050565b6000620000c58262000098565b9050919050565b620000d781620000b8565b8114620000e357600080fd5b50565b600081519050620000f781620000cc565b92915050565b6000819050919050565b6200011281620000fd565b81146200011e57600080fd5b50565b600081519050620001328162000107565b92915050565b60008060006060848603121562000154576200015362000093565b5b60006200016486828701620000e6565b9350506020620001778682870162000121565b92505060406200018a8682870162000121565b9150509250925092565b6120e580620001a46000396000f3fe608060405234801561001057600080fd5b50600436106100885760003560e01c806387d692071161005b57806387d6920714610127578063893d20e8146101575780639a4ab9b614610175578063c3c5a547146101a557610088565b806320b651cd1461008d578063272643c7146100a95780635734c011146100db578063646da8cb1461010b575b600080fd5b6100a760048036038101906100a291906111ea565b6101d5565b005b6100c360048036038101906100be919061125e565b610386565b6040516100d293929190611339565b60405180910390f35b6100f560048036038101906100f091906113cd565b610458565b604051610102919061141a565b60405180910390f35b61012560048036038101906101209190611435565b6105ce565b005b610141600480360381019061013c9190611511565b6109c3565b60405161014e9190611559565b60405180910390f35b61015f6109e3565b60405161016c919061141a565b60405180910390f35b61018f600480360381019061018a91906116a4565b610ad9565b60405161019c9190611559565b60405180910390f35b6101bf60048036038101906101ba919061125e565b610ed8565b6040516101cc9190611559565b60405180910390f35b600360008573ffffffffffffffffffffffffffffffffffffffff1673ffffffffffffffffffffffffffffffffffffffff16815260200190815260200160002060009054906101000a900460ff1615610262576040517f08c379a0000000000000000000000000000000000000000000000000000000008152600401610259906117d3565b60405180910390fd5b60405180606001604052803373ffffffffffffffffffffffffffffffffffffffff16815260200184815260200183838080601f016020809104026020016040519081016040528093929190818152602001838380828437600081840152601f19601f82011690508083019250505050505050815250600460008673ffffffffffffffffffffffffffffffffffffffff1673ffffffffffffffffffffffffffffffffffffffff16815260200190815260200160002060008201518160000160006101000a81548173ffffffffffffffffffffffffffffffffffffffff021916908373ffffffffffffffffffffffffffffffffffffffff16021790555060208201518160010155604082015181600201908161037c9190611a09565b5090505050505050565b60046020528060005260406000206000915090508060000160009054906101000a900473ffffffffffffffffffffffffffffffffffffffff16908060010154908060020180546103d590611822565b80601f016020809104026020016040519081016040528092919081815260200182805461040190611822565b801561044e5780601f106104235761010080835404028352916020019161044e565b820191906000526020600020905b81548152906001019060200180831161043157829003601f168201915b5050505050905083565b6000806104a884848080601f016020809104026020016040519081016040528093929190818152602001838380828437600081840152601f19601f82011690508083019250505050505050610ef8565b90506000600660009054906101000a900473ffffffffffffffffffffffffffffffffffffffff1673ffffffffffffffffffffffffffffffffffffffff16630178b8bf836040518263ffffffff1660e01b81526004016105079190611adb565b602060405180830381865afa158015610524573d6000803e3d6000fd5b505050506040513d601f19601f820116820180604052508101906105489190611b34565b90508073ffffffffffffffffffffffffffffffffffffffff16633b3b57de836040518263ffffffff1660e01b81526004016105839190611adb565b602060405180830381865afa1580156105a0573d6000803e3d6000fd5b505050506040513d601f19601f820116820180604052508101906105c49190611b76565b9250505092915050565b600360008973ffffffffffffffffffffffffffffffffffffffff1673ffffffffffffffffffffffffffffffffffffffff16815260200190815260200160002060009054906101000a900460ff1661065a576040517f08c379a000000000000000000000000000000000000000000000000000000000815260040161065190611bef565b60405180910390fd5b6005600084815260200190815260200160002060009054906101000a900460ff16156106bb576040517f08c379a00000000000000000000000000000000000000000000000000000000081526004016106b290611c5b565b60405180910390fd5b6000600460008a73ffffffffffffffffffffffffffffffffffffffff1673ffffffffffffffffffffffffffffffffffffffff1681526020019081526020016000206040518060600160405290816000820160009054906101000a900473ffffffffffffffffffffffffffffffffffffffff1673ffffffffffffffffffffffffffffffffffffffff1673ffffffffffffffffffffffffffffffffffffffff1681526020016001820154815260200160028201805461077790611822565b80601f01602080910402602001604051908101604052809291908181526020018280546107a390611822565b80156107f05780601f106107c5576101008083540402835291602001916107f0565b820191906000526020600020905b8154815290600101906020018083116107d357829003601f168201915b505050505081525050905060008160000151905061080e8989610458565b73ffffffffffffffffffffffffffffffffffffffff168173ffffffffffffffffffffffffffffffffffffffff161461087b576040517f08c379a000000000000000000000000000000000000000000000000000000000815260040161087290611cc7565b60405180910390fd5b6000898989896040516020016108949493929190611d63565b60405160208183030381529060405290506108bb8360400151846020015183898989610ad9565b6108fa576040517f08c379a00000000000000000000000000000000000000000000000000000000081526004016108f190611df5565b60405180910390fd5b60016005600088815260200190815260200160002060006101000a81548160ff02191690831515021790555060006109328989610458565b905080600460008e73ffffffffffffffffffffffffffffffffffffffff1673ffffffffffffffffffffffffffffffffffffffff16815260200190815260200160002060000160006101000a81548173ffffffffffffffffffffffffffffffffffffffff021916908373ffffffffffffffffffffffffffffffffffffffff160217905550505050505050505050505050565b60056020528060005260406000206000915054906101000a900460ff1681565b6000600360003373ffffffffffffffffffffffffffffffffffffffff1673ffffffffffffffffffffffffffffffffffffffff16815260200190815260200160002060009054906101000a900460ff16610a71576040517f08c379a0000000000000000000000000000000000000000000000000000000008152600401610a6890611e61565b60405180910390fd5b600460003373ffffffffffffffffffffffffffffffffffffffff1673ffffffffffffffffffffffffffffffffffffffff16815260200190815260200160002060000160009054906101000a900473ffffffffffffffffffffffffffffffffffffffff16905090565b6000806001546020610aeb9190611eb0565b67ffffffffffffffff811115610b0457610b03611579565b5b6040519080825280601f01601f191660200182016040528015610b365781602001600182028036833780820191505090505b50905060005b8851811015610bd057818181518110610b5857610b57611ef2565b5b602001015160f81c60f81b82601f836020610b739190611eb0565b610b7d9190611f21565b81518110610b8e57610b8d611ef2565b5b60200101907effffffffffffffffffffffffffffffffffffffffffffffffffffffffffffff1916908160001a9053508080610bc890611f55565b915050610b3c565b50600061040067ffffffffffffffff811115610bef57610bee611579565b5b6040519080825280601f01601f191660200182016040528015610c215781602001600182028036833780820191505090505b50905060005b6020811015610cb457888160208110610c4357610c42611ef2565b5b1a60f81b82601f836020610c579190611eb0565b610c619190611f21565b81518110610c7257610c71611ef2565b5b60200101907effffffffffffffffffffffffffffffffffffffffffffffffffffffffffffff1916908160001a9053508080610cac90611f55565b915050610c27565b5060006002546020610cc69190611eb0565b67ffffffffffffffff811115610cdf57610cde611579565b5b6040519080825280601f01601f191660200182016040528015610d115781602001600182028036833780820191505090505b50905060005b8151811015610dab57888181518110610d3357610d32611ef2565b5b602001015160f81c60f81b82601f836020610d4e9190611eb0565b610d589190611f21565b81518110610d6957610d68611ef2565b5b60200101907effffffffffffffffffffffffffffffffffffffffffffffffffffffffffffff1916908160001a9053508080610da390611f55565b915050610d17565b50600061040067ffffffffffffffff811115610dca57610dc9611579565b5b6040519080825280601f01601f191660200182016040528015610dfc5781602001600182028036833780820191505090505b50905060005b6020811015610e8f57888160208110610e1e57610e1d611ef2565b5b1a60f81b82601f836020610e329190611eb0565b610e3c9190611f21565b81518110610e4d57610e4c611ef2565b5b60200101907effffffffffffffffffffffffffffffffffffffffffffffffffffffffffffff1916908160001a9053508080610e8790611f55565b915050610e02565b506000848484848b8b604051602001610ead96959493929190611ffe565b6040516020818303038152906040529050610ec781610f0c565b955050505050509695505050505050565b60036020528060005260406000206000915054906101000a900460ff1681565b6000610f05826000610fa1565b9050919050565b60008060008054906101000a900473ffffffffffffffffffffffffffffffffffffffff1673ffffffffffffffffffffffffffffffffffffffff1683604051610f54919061204b565b600060405180830381855afa9150503d8060008114610f8f576040519150601f19603f3d011682016040523d82523d6000602084013e610f94565b606091505b5050905080915050919050565b600081835111610fb6576000801b905061101b565b6000610fc28484611021565b9050610fe58460018386610fd69190611f21565b610fe09190611f21565b610fa1565b610ff08585846110b1565b604051602001611001929190612083565b604051602081830303815290604052805190602001209150505b92915050565b6000805b835181846110339190611f21565b1415801561108f5750602e60f81b84828561104e9190611f21565b8151811061105f5761105e611ef2565b5b602001015160f81c60f81b7effffffffffffffffffffffffffffffffffffffffffffffffffffffffffffff191614155b156110a757808061109f90611f55565b915050611025565b8091505092915050565b6000835182846110c19190611f21565b11156110cc57600080fd5b818360208601012090509392505050565b6000604051905090565b600080fd5b600080fd5b600073ffffffffffffffffffffffffffffffffffffffff82169050919050565b600061111c826110f1565b9050919050565b61112c81611111565b811461113757600080fd5b50565b60008135905061114981611123565b92915050565b6000819050919050565b6111628161114f565b811461116d57600080fd5b50565b60008135905061117f81611159565b92915050565b600080fd5b600080fd5b600080fd5b60008083601f8401126111aa576111a9611185565b5b8235905067ffffffffffffffff8111156111c7576111c661118a565b5b6020830191508360018202830111156111e3576111e261118f565b5b9250929050565b60008060008060608587031215611204576112036110e7565b5b60006112128782880161113a565b945050602061122387828801611170565b935050604085013567ffffffffffffffff811115611244576112436110ec565b5b61125087828801611194565b925092505092959194509250565b600060208284031215611274576112736110e7565b5b60006112828482850161113a565b91505092915050565b61129481611111565b82525050565b6112a38161114f565b82525050565b600081519050919050565b600082825260208201905092915050565b60005b838110156112e35780820151818401526020810190506112c8565b60008484015250505050565b6000601f19601f8301169050919050565b600061130b826112a9565b61131581856112b4565b93506113258185602086016112c5565b61132e816112ef565b840191505092915050565b600060608201905061134e600083018661128b565b61135b602083018561129a565b818103604083015261136d8184611300565b9050949350505050565b60008083601f84011261138d5761138c611185565b5b8235905067ffffffffffffffff8111156113aa576113a961118a565b5b6020830191508360018202830111156113c6576113c561118f565b5b9250929050565b600080602083850312156113e4576113e36110e7565b5b600083013567ffffffffffffffff811115611402576114016110ec565b5b61140e85828601611377565b92509250509250929050565b600060208201905061142f600083018461128b565b92915050565b60008060008060008060008060a0898b031215611455576114546110e7565b5b60006114638b828c0161113a565b985050602089013567ffffffffffffffff811115611484576114836110ec565b5b6114908b828c01611377565b9750975050604089013567ffffffffffffffff8111156114b3576114b26110ec565b5b6114bf8b828c01611377565b955095505060606114d28b828c01611170565b935050608089013567ffffffffffffffff8111156114f3576114f26110ec565b5b6114ff8b828c01611194565b92509250509295985092959890939650565b600060208284031215611527576115266110e7565b5b600061153584828501611170565b91505092915050565b60008115159050919050565b6115538161153e565b82525050565b600060208201905061156e600083018461154a565b92915050565b600080fd5b7f4e487b7100000000000000000000000000000000000000000000000000000000600052604160045260246000fd5b6115b1826112ef565b810181811067ffffffffffffffff821117156115d0576115cf611579565b5b80604052505050565b60006115e36110dd565b90506115ef82826115a8565b919050565b600067ffffffffffffffff82111561160f5761160e611579565b5b611618826112ef565b9050602081019050919050565b82818337600083830152505050565b6000611647611642846115f4565b6115d9565b90508281526020810184848401111561166357611662611574565b5b61166e848285611625565b509392505050565b600082601f83011261168b5761168a611185565b5b813561169b848260208601611634565b91505092915050565b60008060008060008060a087890312156116c1576116c06110e7565b5b600087013567ffffffffffffffff8111156116df576116de6110ec565b5b6116eb89828a01611676565b96505060206116fc89828a01611170565b955050604087013567ffffffffffffffff81111561171d5761171c6110ec565b5b61172989828a01611676565b945050606061173a89828a01611170565b935050608087013567ffffffffffffffff81111561175b5761175a6110ec565b5b61176789828a01611194565b92509250509295509295509295565b600082825260208201905092915050565b7f616c726561647920726567697374657265640000000000000000000000000000600082015250565b60006117bd601283611776565b91506117c882611787565b602082019050919050565b600060208201905081810360008301526117ec816117b0565b9050919050565b7f4e487b7100000000000000000000000000000000000000000000000000000000600052602260045260246000fd5b6000600282049050600182168061183a57607f821691505b60208210810361184d5761184c6117f3565b5b50919050565b60008190508160005260206000209050919050565b60006020601f8301049050919050565b600082821b905092915050565b6000600883026118b57fffffffffffffffffffffffffffffffffffffffffffffffffffffffffffffffff82611878565b6118bf8683611878565b95508019841693508086168417925050509392505050565b6000819050919050565b6000819050919050565b60006119066119016118fc846118d7565b6118e1565b6118d7565b9050919050565b6000819050919050565b611920836118eb565b61193461192c8261190d565b848454611885565b825550505050565b600090565b61194961193c565b611954818484611917565b505050565b5b818110156119785761196d600082611941565b60018101905061195a565b5050565b601f8211156119bd5761198e81611853565b61199784611868565b810160208510156119a6578190505b6119ba6119b285611868565b830182611959565b50505b505050565b600082821c905092915050565b60006119e0600019846008026119c2565b1980831691505092915050565b60006119f983836119cf565b9150826002028217905092915050565b611a12826112a9565b67ffffffffffffffff811115611a2b57611a2a611579565b5b611a358254611822565b611a4082828561197c565b600060209050601f831160018114611a735760008415611a61578287015190505b611a6b85826119ed565b865550611ad3565b601f198416611a8186611853565b60005b82811015611aa957848901518255600182019150602085019450602081019050611a84565b86831015611ac65784890151611ac2601f8916826119cf565b8355505b6001600288020188555050505b505050505050565b6000602082019050611af0600083018461129a565b92915050565b6000611b0182611111565b9050919050565b611b1181611af6565b8114611b1c57600080fd5b50565b600081519050611b2e81611b08565b92915050565b600060208284031215611b4a57611b496110e7565b5b6000611b5884828501611b1f565b91505092915050565b600081519050611b7081611123565b92915050565b600060208284031215611b8c57611b8b6110e7565b5b6000611b9a84828501611b61565b91505092915050565b7f5468652077616c6c6574206973206e6f74207265676973746572656400000000600082015250565b6000611bd9601c83611776565b9150611be482611ba3565b602082019050919050565b60006020820190508181036000830152611c0881611bcc565b9050919050565b7f4d657373616765206861736820616c7265616479207573656400000000000000600082015250565b6000611c45601983611776565b9150611c5082611c0f565b602082019050919050565b60006020820190508181036000830152611c7481611c38565b9050919050565b7f496e76616c6964206f6c6420454e530000000000000000000000000000000000600082015250565b6000611cb1600f83611776565b9150611cbc82611c7b565b602082019050919050565b60006020820190508181036000830152611ce081611ca4565b9050919050565b7f5265636f7665722074686520454e532000000000000000000000000000000000815250565b600081905092915050565b6000611d248385611d0d565b9350611d31838584611625565b82840190509392505050565b7f20746f2061206e657720454e5320000000000000000000000000000000000000815250565b6000611d6e82611ce7565b601082019150611d7f828688611d18565b9150611d8a82611d3d565b600e82019150611d9b828486611d18565b915081905095945050505050565b7f696e76616c69642070726f6f6600000000000000000000000000000000000000600082015250565b6000611ddf600d83611776565b9150611dea82611da9565b602082019050919050565b60006020820190508181036000830152611e0e81611dd2565b9050919050565b7f6e6f742072656769737465726564000000000000000000000000000000000000600082015250565b6000611e4b600e83611776565b9150611e5682611e15565b602082019050919050565b60006020820190508181036000830152611e7a81611e3e565b9050919050565b7f4e487b7100000000000000000000000000000000000000000000000000000000600052601160045260246000fd5b6000611ebb826118d7565b9150611ec6836118d7565b9250828202611ed4816118d7565b91508282048414831517611eeb57611eea611e81565b5b5092915050565b7f4e487b7100000000000000000000000000000000000000000000000000000000600052603260045260246000fd5b6000611f2c826118d7565b9150611f37836118d7565b9250828201905080821115611f4f57611f4e611e81565b5b92915050565b6000611f60826118d7565b91507fffffffffffffffffffffffffffffffffffffffffffffffffffffffffffffffff8203611f9257611f91611e81565b5b600182019050919050565b600081905092915050565b6000611fb3826112a9565b611fbd8185611f9d565b9350611fcd8185602086016112c5565b80840191505092915050565b6000611fe58385611f9d565b9350611ff2838584611625565b82840190509392505050565b600061200a8289611fa8565b91506120168288611fa8565b91506120228287611fa8565b915061202e8286611fa8565b915061203b828486611fd9565b9150819050979650505050505050565b60006120578284611fa8565b915081905092915050565b6000819050919050565b61207d6120788261114f565b612062565b82525050565b600061208f828561206c565b60208201915061209f828461206c565b602082019150819050939250505056fea26469706673582212201ff84a3386ca08b622d8de0f129f6fa40a00a888288d12d289c9b2f08be8ca0d64736f6c63430008110033",
  "linkReferences": {},
  "deployedLinkReferences": {}
}