{
  "_format": "hh-sol-artifact-1",
  "contractName": "VoiceKeyRecover",
  "sourceName": "contracts/VoiceKeyRecover.sol",
  "abi": [
    {
      "inputs": [
        {
          "internalType": "uint256",
          "name": "_maxMsgSize",
          "type": "uint256"
        }
      ],
      "stateMutability": "nonpayable",
      "type": "constructor"
    },
    {
      "inputs": [],
      "name": "getOwner",
      "outputs": [
        {
          "internalType": "address",
          "name": "",
          "type": "address"
        }
      ],
      "stateMutability": "view",
      "type": "function"
    },
    {
      "inputs": [
        {
          "internalType": "address",
          "name": "",
          "type": "address"
        }
      ],
      "name": "isRegistered",
      "outputs": [
        {
          "internalType": "bool",
          "name": "",
          "type": "bool"
        }
      ],
      "stateMutability": "view",
      "type": "function"
    },
    {
      "inputs": [
        {
          "internalType": "address",
          "name": "walletAddr",
          "type": "address"
        },
        {
          "internalType": "bytes32",
          "name": "messageHash",
          "type": "bytes32"
        },
        {
          "internalType": "bytes",
          "name": "proof",
          "type": "bytes"
        }
      ],
      "name": "recover",
      "outputs": [],
      "stateMutability": "nonpayable",
      "type": "function"
    },
    {
      "inputs": [
        {
          "internalType": "address",
          "name": "walletAddr",
          "type": "address"
        },
        {
          "internalType": "bytes32",
          "name": "featureHash",
          "type": "bytes32"
        },
        {
          "internalType": "bytes32",
          "name": "commitmentHash",
          "type": "bytes32"
        },
        {
          "internalType": "bytes",
          "name": "commitment",
          "type": "bytes"
        }
      ],
      "name": "register",
      "outputs": [],
      "stateMutability": "nonpayable",
      "type": "function"
    },
    {
      "inputs": [
        {
          "internalType": "bytes32",
          "name": "",
          "type": "bytes32"
        }
      ],
      "name": "usedMessageHashes",
      "outputs": [
        {
          "internalType": "bool",
          "name": "",
          "type": "bool"
        }
      ],
      "stateMutability": "view",
      "type": "function"
    },
    {
      "inputs": [
        {
          "internalType": "bytes32",
          "name": "commitmentHash",
          "type": "bytes32"
        },
        {
          "internalType": "bytes32",
          "name": "featureHash",
          "type": "bytes32"
        },
        {
          "internalType": "bytes32",
          "name": "messageHash",
          "type": "bytes32"
        },
        {
          "internalType": "bytes",
          "name": "message",
          "type": "bytes"
        },
        {
          "internalType": "bytes",
          "name": "proof",
          "type": "bytes"
        }
      ],
      "name": "verify",
      "outputs": [
        {
          "internalType": "bool",
          "name": "",
          "type": "bool"
        }
      ],
      "stateMutability": "view",
      "type": "function"
    },
    {
      "inputs": [
        {
          "internalType": "uint256[]",
          "name": "pubInputs",
          "type": "uint256[]"
        },
        {
          "internalType": "bytes",
          "name": "proof",
          "type": "bytes"
        }
      ],
      "name": "verify",
      "outputs": [
        {
          "internalType": "bool",
          "name": "",
          "type": "bool"
        }
      ],
      "stateMutability": "view",
      "type": "function"
    },
    {
      "inputs": [
        {
          "internalType": "address",
          "name": "",
          "type": "address"
        }
      ],
      "name": "voiceDataOfWallet",
      "outputs": [
        {
          "internalType": "address",
          "name": "owner",
          "type": "address"
        },
        {
          "internalType": "bytes32",
          "name": "featureHash",
          "type": "bytes32"
        },
        {
          "internalType": "bytes32",
          "name": "commitmentHash",
          "type": "bytes32"
        },
        {
          "internalType": "bytes",
          "name": "commitment",
          "type": "bytes"
        }
      ],
      "stateMutability": "view",
      "type": "function"
    }
  ],
  "bytecode": "0x60806040523480156200001157600080fd5b50604051620040183803806200401883398101604081905262000034916200003d565b60005562000057565b6000602082840312156200005057600080fd5b5051919050565b613fb180620000676000396000f3fe608060405234801561001057600080fd5b50600436106100885760003560e01c806387d692071161005b57806387d6920714610100578063893d20e814610123578063bd205a9014610143578063c3c5a5471461015657600080fd5b8063014aaabd1461008d578063272643c7146100b557806369123543146100d85780636e62937f146100ed575b600080fd5b6100a061009b366004613a6a565b610179565b60405190151581526020015b60405180910390f35b6100c86100c3366004613b07565b610373565b6040516100ac9493929190613b29565b6100eb6100e6366004613bde565b610430565b005b6100eb6100fb366004613c38565b6106f9565b6100a061010e366004613ca0565b60036020526000908152604090205460ff1681565b61012b61083f565b6040516001600160a01b0390911681526020016100ac565b6100a0610151366004613cb9565b6108ac565b6100a0610164366004613b07565b60016020526000908152604090205460ff1681565b600080600054600361018b9190613d97565b67ffffffffffffffff8111156101a3576101a36139b3565b6040519080825280602002602001820160405280156101cc578160200160208202803683370190505b5090508660001c816000815181106101e6576101e6613daa565b6020026020010181815250508560001c8160018151811061020957610209613daa565b6020026020010181815250508460001c8160028151811061022c5761022c613daa565b60200260200101818152505060005b601085516102499190613dc0565b8110156102f857600160005b60108110156102e357868161026b856010613de2565b6102759190613d97565b8151811061028557610285613daa565b01602001516102979060f81c83613de2565b846102a3856003613d97565b815181106102b3576102b3613daa565b602002602001018181516102c79190613d97565b90525060089190911b90806102db81613df9565b915050610255565b505080806102f090613df9565b91505061023b565b506000601085516103099190613dc0565b90505b601060005461031b9190613dc0565b81101561035d57600082610330836003613d97565b8151811061034057610340613daa565b60209081029190910101528061035581613df9565b91505061030c565b5061036881846108ac565b979650505050505050565b600260208190526000918252604090912080546001820154928201546003830180546001600160a01b03909316949391926103ad90613e12565b80601f01602080910402602001604051908101604052809291908181526020018280546103d990613e12565b80156104265780601f106103fb57610100808354040283529160200191610426565b820191906000526020600020905b81548152906001019060200180831161040957829003601f168201915b5050505050905084565b6001600160a01b03841660009081526001602052604090205460ff1661049d5760405162461bcd60e51b815260206004820152601c60248201527f5468652077616c6c6574206973206e6f7420726567697374657265640000000060448201526064015b60405180910390fd5b60008381526003602052604090205460ff16156104fc5760405162461bcd60e51b815260206004820152601960248201527f4d657373616765206861736820616c72656164792075736564000000000000006044820152606401610494565b6001600160a01b038085166000908152600260208181526040808420815160808101835281549096168652600181015492860192909252918101549184019190915260038101805492939260608401919061055690613e12565b80601f016020809104026020016040519081016040528092919081815260200182805461058290613e12565b80156105cf5780601f106105a4576101008083540402835291602001916105cf565b820191906000526020600020905b8154815290600101906020018083116105b257829003601f168201915b5050509190925250508151604051606082811b6bffffffffffffffffffffffff199081166020840152339182901b16603483015293945090929150600090604801604051602081830303815290604052905061066c8460400151856020015189848a8a8080601f01602080910402602001604051908101604052809392919081815260200183838082843760009201919091525061017992505050565b6106a85760405162461bcd60e51b815260206004820152600d60248201526c34b73b30b634b210383937b7b360991b6044820152606401610494565b506000958652600360209081526040808820805460ff191660011790556001600160a01b03988916885260029091529095208054969095166001600160a01b03199096169590951790935550505050565b6001600160a01b03851660009081526001602052604090205460ff16156107575760405162461bcd60e51b8152602060048201526012602482015271185b1c9958591e481c9959da5cdd195c995960721b6044820152606401610494565b6040518060800160405280336001600160a01b0316815260200185815260200184815260200183838080601f01602080910402602001604051908101604052809392919081815260200183838082843760009201829052509390945250506001600160a01b03888116825260026020818152604093849020865181546001600160a01b0319169416939093178355850151600183015591840151918101919091556060830151909150600382019061080f9082613e9b565b5050506001600160a01b039094166000908152600160208190526040909120805460ff1916909117905550505050565b3360009081526001602052604081205460ff1661088f5760405162461bcd60e51b815260206004820152600e60248201526d1b9bdd081c9959da5cdd195c995960921b6044820152606401610494565b50336000908152600260205260409020546001600160a01b031690565b600060016108b8613993565b7f30644e72e131a029b85045b68181585d2833e84879b9709143e1f593f0000001610947565b600080516020613f5c833981519152808210818410168215841517191690838009600080516020613f5c833981519152838409600080516020613f5c8339815191528482099050600080516020613f5c8339815191526003820891909114919091169392505050565b8060208701510660208301528060408701510660408301528060608701510660608301528060808701510660808301528060a08701510660a08301528060c08701510660c08301528060e08701510660e08301527f1b527179b917758546584704478e29019da67015e43e2c564ccabaa7688e87246000830152602085015180610100840152604086015180610120850152846109e482846108de565b1694505050610140600083012061014083015261014082015181810661016084015280610180840152506060850151806101a08401526080860151806101c085015284610a3182846108de565b169450505060a0850151806101e084015260c08601518061020085015284610a5982846108de565b60a061018087012061022087018190528581066102408801526102608701521694506001915050610280830153602161026083012061028083018190528181066102a08401526102c083015260e08501516102e08301819052610100860151610300840181905284610acb82846108de565b1694505050610120850151806103208401526101408601518061034085015284610af582846108de565b1694505050610160850151806103608401526101808601518061038085015284610b1f82846108de565b169450505060e06102c08301206103a08301526103a08201518181066103c0840152806103e0840152506101a0850151806104008401526101c08601518061042085015284610b6e82846108de565b16945050506101e0850151806104408401526102008601518061046085015284610b9882846108de565b169450505061022085015180610480840152610240860151806104a085015284610bc282846108de565b1694505050610260850151806104c0840152610280860151806104e085015284610bec82846108de565b16945050506101206103e08301206105008301526105008201518181066105208401528061054084015250806102a086015106610560830152806102c086015106610580830152806102e0860151066105a083015280610300860151066105c083015280610320860151066105e0830152806103408601510661060083015280610360860151066106208301528061038086015106610640830152806103a086015106610660830152806103c086015106610680830152806103e0860151066106a083015280610400860151066106c083015280610420860151066106e0830152806104408601510661070083015280610460860151066107208301528061048086015106610740830152806104a086015106610760830152806104c086015106610780830152806104e0860151066107a08301526102806105408301206107c08301526107c08201518181066107e08401528061080084015250610500850151806108208401526105208601518061084085015284610d6c82846108de565b1694505050610540850151806108608401526105608601518061088085015284610d9682846108de565b1694505050610580850151806108a08401526105a0860151806108c085015284610dc082846108de565b16945050506105c0850151806108e08401526105e08601518061090085015284610dea82846108de565b1694505050610600850151806109208401526106208601518061094085015284610e1482846108de565b61016061080087012061096087018190528581066109808801526109a087015261052086015191169550839250905080096109c08301819052819080096109e0830181905281908009610a00830181905281908009610a20830181905281908009610a40830181905281908009610a60830181905281908009610a80830181905281908009610aa0830181905281908009610ac0830181905281908009610ae0830181905281908009610b00830181905281908009610b20830181905281908009610b40830181905281908009610b60830181905281908009610b80830181905281908009610ba0830181905281908009610bc0830181905281908009610be0830181905281908009610c00830181905281908009610c20830152807f30644e72e131a029b85045b68181585d2833e84879b9709143e1f593f0000000610c2084015108610c40830152807f30644b6c9c4a72169e4daa317d25f04512ae15c53b34e8f5acd8e155d0a6c101610c4084015109610c60830152807f06ae3297064d9d1997906428c63f2864029508681b8d0123cb1b3d4b8f941598610c6084015109610c80830152807f29b61bdbdae4031020bfe18dbb422ff9259edfe05e2c6f6d78c6b848606bea6961052084015108610ca0830152807f1d70265fc2e33776f0609a8b65dc22789d415875873f53a4a63e7d88ff30707f610c6084015109610cc0830152807f12f428131e4e68b2c7efab2b1ba535e48af28fd2f27a1cec9da3780af0cf8f8261052084015108610ce0830152807f0f262d2862bb3e6c8683b23f719c15c53c816bc9ed14bc54293a0d14167632d7610c6084015109610d00830152807f213e214a7e7661bd31cc93770fe54297ebb27c7e8ca4b43d1aa7e87fd989cd2a61052084015108610d20830152807f0e1165d221ab96da2bb4efe1b8fbf541b58d00917384a41bc6ab624d6d3e2b76610c6084015109610d40830152807f2252e8a0bf86094f8c9b55d4c885631b72a6e7b70634cc757d36934682c1d48b61052084015108610d60830152807f0118444755e4129457b85d47760f652dd3c81fbdec5ea1924ff46796b5299545610c6084015109610d80830152807f2f4c0a2b8b4d8d956097e86f0b71f32f546bc88a8d5acefef3ed8dfd3ad66abc61052084015108610da0830152807f20784546081c2aba227a9c15990bf6983ba2a2758faf563f38b437203ee230a9610c6084015109610dc0830152807f0fec092cd915756f95d5a9a0e87561c4ec9145d2ea0a1a520b2dbe73b11dcf5861052084015108610de0830152807f220db0d8bf832baf9eecbf4fa49947e0b2a3d31df0a733ea5ae8abbdab442d5f610c6084015109610e00830152807f0e569d9a21ae747a19638666dce8107c7590152a89123ca6e8f949d644bbd2a261052084015108610e20830152806001610c6084015109610e40830152807f30644e72e131a029b85045b68181585d2833e84879b9709143e1f593f000000061052084015108610e60830152807f2a14464f1ff42de3856402b62520e670745e39fada049d5b2f0e1e3182673378610c6084015109610e80830152807f06500823c13d724632ec43005c6071ecb3d5ae4d9fb4d33614d3d7626d98cc8961052084015108610ea0830152807f0cf1526aaafac6bacbb67d11a4077806b123f767e4b0883d14cc0193568fc082610c6084015109610ec0830152807f2372fc083636d96eec99c8a4dd79e056770ff0e09508e8542f15f40099703f7f61052084015108610ee0830152807f157057e61fa68c20f015bccca35a72daa53b29abd151cfa1431a92029ece5c0e610c6084015109610f00830152807f1af3f68cc18b1408c83a88e9de26e58282f8be9ca867a0f000c763915131a3f361052084015108610f20830152807f0f60c8fe0414cb9379b2d39267945f6bd60d06a05216231b26a9fcf88ddbfebe610c6084015109610f40830152807f21038574dd1cd4963e9d722419ecf8f15226e1a827a34d761d37f89b6224014361052084015108610f60830152807f0bb1b800e0fc2016082cf25a117ee7ebc61bdc048d093fbf025ec0794556abea610c6084015109610f80830152807f24b2967200358013b023535c7002707162180c43ecb030d24183351aaaa9541761052084015108610fa0830152807f09f83b8b9c5b192f9193a231814c3163b9b8c636b1d40961a83ac1f42dc63b26610c6084015109610fc0830152807f266c12e744d686fa26bca385003526f96e7b2211c7e5672f9ba7339fc239c4db61052084015108610fe0830152610ca08201518181610ce0850151099050806110008401528181610d20850151099050806110208401528181610d60850151099050806110408401528181610da0850151099050806110608401528181610de0850151099050806110808401528181610e20850151099050806110a08401528181610e60850151099050806110c08401528181610ea0850151099050806110e08401528181610ee0850151099050806111008401528181610f20850151099050806111208401528181610f60850151099050806111408401528181610fa0850151099050806111608401528181610fe0850151099050806111808401528181610c40850151099050806111a08401525060206111e0830152602061120083015260206112208301526111a08201516112408301527f30644e72e131a029b85045b68181585d2833e84879b9709143e1f593efffffff6112608301527f30644e72e131a029b85045b68181585d2833e84879b9709143e1f593f000000161128083015282600160206111c0850160c06111e0870160055afa141692506111c08201516000610c408401519050828261118086015109610c40850152828282099150610fe08401519050828261116086015109610fe0850152828282099150610fa08401519050828261114086015109610fa0850152828282099150610f608401519050828261112086015109610f60850152828282099150610f208401519050828261110086015109610f20850152828282099150610ee0840151905082826110e086015109610ee0850152828282099150610ea0840151905082826110c086015109610ea0850152828282099150610e60840151905082826110a086015109610e60850152828282099150610e208401519050828261108086015109610e20850152828282099150610de08401519050828261106086015109610de0850152828282099150610da08401519050828261104086015109610da0850152828282099150610d608401519050828261102086015109610d60850152828282099150610d208401519050828261100086015109610d20850152828282099150610ce084015190508282610ca086015109610ce085015282828209610ca08501819052610c80850151849350909150096112a083015280610ce0830151610cc0840151096112c083015280610d20830151610d00840151096112e083015280610d60830151610d408401510961130083015280610da0830151610d808401510961132083015280610de0830151610dc08401510961134083015280610e20830151610e008401510961136083015280610e60830151610e408401510961138083015280610ea0830151610e80840151096113a083015280610ee0830151610ec0840151096113c083015280610f20830151610f00840151096113e083015280610f60830151610f408401510961140083015280610fa0830151610f808401510961142083015280610fe0830151610fc0840151096114408301528060208301516113808401510981818360408601516113a08701510908905081818360608601516113c08701510908905081818360808601516113e08701510908905081818360a08601516114008701510908905081818360c08601516114208701510908905081818360e08601516114408701510908611460840152506105808201516105a08301518291900961148083015280611480830151610560840151086114a0830152806105c083015182036114a0840151086114c083018190526106408301518291096114e0830152806114e08301516103c084015109611500830152806106e0830151820360010861152083018190526113808301518291096115408301528061154083015161150084015108611560830152806115608301516103c0840151096115808301526106e0820151819080096115a0830152806106e083015182036115a0840151086115c083018190526112a08301518291096115e0830152806115e083015161158084015108611600830152806116008301516103c084015109611620830152806112a08301518203600108611640830152806112e08301516112c084015108611660830181905261130083015182910861168083018190526113208301518291086116a083018190526113408301518291086116c083018190526113608301518291086116e0830152806116e08301518203611640840151086117008301528061024083015161068084015109611720830152806117208301516105e08401510861174083018190526102a0830151829108611760830152806102408301516106a08401510961178083015280611780830151610560840151086117a083018190526102a08301518291086117c083018190526117608301518291096117e0830152806102408301516106c084015109611800830152806118008301516114608401510861182083018190526102a083015182910861184083018190526117e08301518291096118608301819052610700830151829109611880830152806102408301516001096118a0830152806118a0830151610520840151096118c0830152806118c08301516105e0840151086118e083018190526102a0830151829108611900830152806102408301517f09226b6e22c6f0ca64ec26aad4c86e715b5f898e5e963f25870e56bbe533e9a2096119208301528061192083015161052084015109611940830152806119408301516105608401510861196083018190526102a083015182910861198083018190526119008301518291096119a0830152806102408301517f13b360d4e82fe915fed16081038f98c211427b87a281bd733c277dbadf10372b096119c0830152806119c0830151610520840151096119e0830152806119e083015161146084015108611a0083018190526102a0830151829108611a2083018190526119a0830151829109611a4083018190526106e0830151829109611a6083015280611a60830151820361188084015108611a808301819052611700830151829109611aa083015280611aa083015161162084015108611ac083015280611ac08301516103c084015109611ae0830152806107208301518203600108611b008301819052611380830151829109611b2083015280611b20830151611ae084015108611b4083015280611b408301516103c084015109611b6083015261072082015181908009611b80830152806107208301518203611b8084015108611ba083018190526112a0830151829109611bc083015280611bc0830151611b6084015108611be083015280611be08301516103c084015109611c008301528061024083015161076084015108611c208301819052610740830151829109611c40830152806102a08301516107a084015108611c608301819052611c40830151829109611c808301528061062083015161056084015109611ca08301819052610240830151829108611cc08301819052610720830151829109611ce0830152806102a083015161060084015108611d008301819052611ce0830151829109611d2083015280611d208301518203611c8084015108611d408301819052611700830151829109611d6083015280611d60830151611c0084015108611d8083015280611d808301516103c084015109611da0830152806107a0830151820361076084015108611dc08301819052611380830151829109611de083015280611de0830151611da084015108611e0083015280611e008301516103c084015109611e2083015280611700830151611dc084015109611e4083015280610780830151820361076084015108611e608301819052611e40830151829109611e8083015280611e80830151611e2084015108611ea0830152610c2082015181908009611ec08301819052610c20830151829109611ee08301819052610c20830151829109611f0083015280610c20830151600109611f2083015280611ec0830151600109611f4083015280611ee0830151600109611f6083015280610c40830151611ea084015109611f8083015261098082015181908009611fa08301819052610980830151829109611fc08301819052610980830151829109611fe083018190526109808301518291096120008301526107e08201518190800961202083018190526107e083015182910961204083018190526107e083015182910961206083018190526107e083015182910961208083018190526107e08301518291096120a083018190526107e08301518291096120c083018190526107e08301518291096120e083018190526107e083015182910961210083018190526107e083015182910961212083018190526107e083015182910961214083018190526107e083015182910961216083018190526107e083015182910961218083018190526107e08301518291096121a08301528060016105608401518303096121c0830152806107e08301516106e08401518303096121e0830152806107e0830151600109612200830152806121e08301516121c08401510861222083015280612020830151610720840151830309612240830152806120208301516001096122608301528061224083015161222084015108612280830152806120408301516107608401518303096122a0830152806120408301516001096122c0830152806122a0830151612280840151086122e0830152806120608301516107a084015183030961230083015280612060830151600109612320830152806123008301516122e084015108612340830152806120808301516105e08401518303096123608301528061208083015160010961238083015280612360830151612340840151086123a0830152806120a08301516106008401518303096123c0830152806120a08301516001096123e0830152806123c08301516123a084015108612400830152806120c0830151610620840151830309612420830152806120c08301516001096124408301528061242083015161240084015108612460830152806120e0830151610640840151830309612480830152806120e08301516001096124a083015280612480830151612460840151086124c0830152806121008301516106808401518303096124e083015280612100830151600109612500830152806124e08301516124c084015108612520830152806121208301516106a0840151830309612540830152806121208301516001096125608301528061254083015161252084015108612580830152806121408301516106c08401518303096125a0830152806121408301516001096125c0830152806125a0830151612580840151086125e083015280612160830151611f808401518303096126008301528061216083015160010961262083015280612160830151611f208401510961264083015280612160830151611f408401510961266083015280612160830151611f6084015109612680830152806126008301516125e0840151086126a0830152806121808301516106608401518303096126c0830152806121808301516001096126e0830152806126c08301516126a0840151086127008301528060016127008401510961272083015280600161220084015109612740830152806001612260840151096127608301528060016122c084015109612780830152806001612320840151096127a0830152806001612380840151096127c08301528060016123e0840151096127e0830152806001612440840151096128008301528060016124a08401510961282083015280600161250084015109612840830152806001612560840151096128608301528060016125c084015109612880830152806001612620840151096128a0830152806001612640840151096128c0830152806001612660840151096128e0830152806001612680840151096129008301528060016126e084015109612920830152806001610580840151830309612940830152806107e08301516107008401518303096129608301528061296083015161294084015108612980830152806120208301516107408401518303096129a0830152806129a0830151612980840151086129c083018190526109808301518291096129e083015280610980830151600109612a008301528061098083015161220084015109612a208301528061098083015161226084015109612a40830152806129e083015161272084015108612a6083015280612a00830151600108612a8083015280612a2083015161274084015108612aa083015280612a4083015161276084015108612ac08301528060016105a0840151830309612ae08301819052611fa0830151829109612b0083015280611fa0830151600109612b2083015280612b00830151612a6084015108612b4083015280612b20830151612a8084015108612b608301528060016105c0840151830309612b808301819052611fc0830151829109612ba083015280611fc0830151600109612bc083015280612ba0830151612b4084015108612be083015280612bc0830151612b6084015108612c00830152806001610780840151830309612c208301819052611fe0830151829109612c4083015280611fe0830151600109612c6083015280612c40830151612be084015108612c8083015280612c6083015161278084015108612ca083015280610520830151600109612cc083018190528190600109612ce0830152806105208301517f2a14464f1ff42de3856402b62520e670745e39fada049d5b2f0e1e318267337809612d0083015280612d00830151612a0084015109612d20830152806105208301517f0cf1526aaafac6bacbb67d11a4077806b123f767e4b0883d14cc0193568fc08209612d4083015280612d40830151612b2084015109612d60830152806105208301517f157057e61fa68c20f015bccca35a72daa53b29abd151cfa1431a92029ece5c0e09612d8083015280612d80830151612bc084015109612da0830152806105208301517f220db0d8bf832baf9eecbf4fa49947e0b2a3d31df0a733ea5ae8abbdab442d5f09612dc083015280612dc0830151612c6084015109612de0830152506001612e0082018181526002612e20840152612c80830151612e4084015283919060409060608160075afa14169150610100810151612e60820152610120810151612e80820152612c00810151612ea08201528160016040612e6084016060612e60860160075afa14169150612e00810151612ec0820152612e20810151612ee0820152612e60810151612f00820152612e80810151612f208201528160016040612ec084016080612ec0860160065afa141691506102e0810151612f40820152610300810151612f60820152612aa0810151612f808201528160016040612f4084016060612f40860160075afa14169150612ec0810151612fa0820152612ee0810151612fc0820152612f40810151612fe0820152612f608101516130008201528160016040612fa084016080612fa0860160065afa14169150610320810151613020820152610340810151613040820152612ac0810151613060820152816001604061302084016060613020860160075afa14169150612fa0810151613080820152612fc08101516130a08201526130208101516130c08201526130408101516130e0820152816001604061308084016080613080860160065afa141691506101a08101516131008201526101c0810151613120820152612ca0810151613140820152816001604061310084016060613100860160075afa141691506130808101516131608201526130a08101516131808201526131008101516131a08201526131208101516131c0820152816001604061316084016080613160860160065afa141691506101e08101516131e08201526102008101516132008201526127a081015161322082015281600160406131e0840160606131e0860160075afa141691506131608101516132408201526131808101516132608201526131e08101516132808201526132008101516132a0820152816001604061324084016080613240860160065afa141691507f0995f93a54b0e285369916a264f8c0ae83cc3518d6345ab15f039bb1bf42b11a6132c08201527f2abde374611d234f945070bb971bd2ba1bd5646fe88b26624a4a53947823106d6132e08201526127c081015161330082015281600160406132c0840160606132c0860160075afa141691506132408101516133208201526132608101516133408201526132c08101516133608201526132e0810151613380820152816001604061332084016080613320860160065afa141691507f07f70134a46bee8e3af2e041b227b82910d50e5d1e5201a7ad5c117aa140c47b6133a08201527f15a2a99b119d10c38cd3e59076e6229b229849700bbbbefc0ba78b5b40e224396133c08201526127e08101516133e082015281600160406133a0840160606133a0860160075afa141691506133208101516134008201526133408101516134208201526133a08101516134408201526133c0810151613460820152816001604061340084016080613400860160065afa141691507f13eaa429a93802360d3caacadbfef206f830f6d99d1711ff0f7b9bfd57a2a59a6134808201527e6b98dc9d8030d70a88db44b0577c46ae29021db5b61a224fd287b4f32bc29d6134a08201526128008101516134c0820152816001604061348084016060613480860160075afa141691506134008101516134e08201526134208101516135008201526134808101516135208201526134a081015161354082015281600160406134e0840160806134e0860160065afa141691507f15a2ba003053e21561696aa11486d6d6971f080296124435bdd92f9c47e0251b6135608201527f09d27c24548e7af1ac99e4b3de2ff072710d18dabe754fed3ec16fec8f8236086135808201526128208101516135a0820152816001604061356084016060613560860160075afa141691506134e08101516135c08201526135008101516135e082015261356081015161360082015261358081015161362082015281600160406135c0840160806135c0860160065afa141691507f2f822012fe3f287ed55243bfaf1b10a645e2594e1a57a294a669aa1d8006e6776136408201527f1b79d5fc3f6d85ca366e491fe04d23b1a10d719d8f48e18e2f78aa16c46804e5613660820152612840810151613680820152816001604061364084016060613640860160075afa141691506135c08101516136a08201526135e08101516136c08201526136408101516136e082015261366081015161370082015281600160406136a0840160806136a0860160065afa141691507f0edc13d4445da674079a8d70ec5780a2a8b661e084e87b3720f1f61f30c7a1906137208201527f13a48652fd49d60374251fa0166d3399938f68d2769508abad8588de8a980f3c613740820152612860810151613760820152816001604061372084016060613720860160075afa141691506136a08101516137808201526136c08101516137a08201526137208101516137c08201526137408101516137e0820152816001604061378084016080613780860160065afa141691507f16468a9cad37b40ae434b8735b65067af6dd8571f56151c599b856faef3531d16138008201527f0e33db5f797bdc53032f11f163dd2927cbb96e589197943d10237de4196476d1613820820152612880810151613840820152816001604061380084016060613800860160075afa141691506137808101516138608201526137a08101516138808201526138008101516138a08201526138208101516138c0820152816001604061386084016080613860860160065afa141691506104008101516138e08201526104208101516139008201526128a081015161392082015281600160406138e0840160606138e0860160075afa141691506138608101516139408201526138808101516139608201526138e08101516139808201526139008101516139a0820152816001604061394084016080613940860160065afa141691506104408101516139c08201526104608101516139e08201526128c0810151613a0082015281600160406139c0840160606139c0860160075afa14169150613940810151613a20820152613960810151613a408201526139c0810151613a608201526139e0810151613a808201528160016040613a2084016080613a20860160065afa14169150610480810151613aa08201526104a0810151613ac08201526128e0810151613ae08201528160016040613aa084016060613aa0860160075afa14169150613a20810151613b00820152613a40810151613b20820152613aa0810151613b40820152613ac0810151613b608201528160016040613b0084016080613b00860160065afa141691506104c0810151613b808201526104e0810151613ba0820152612900810151613bc08201528160016040613b8084016060613b80860160075afa14169150613b00810151613be0820152613b20810151613c00820152613b80810151613c20820152613ba0810151613c408201528160016040613be084016080613be0860160065afa14169150610360810151613c60820152610380810151613c80820152612920810151613ca08201528160016040613c6084016060613c60860160075afa14169150613be0810151613cc0820152613c00810151613ce0820152613c60810151613d00820152613c80810151613d208201528160016040613cc084016080613cc0860160065afa14169150610820810151613d40820152610840810151613d60820152612ce0810151613d808201528160016040613d4084016060613d40860160075afa14169150613cc0810151613da0820152613ce0810151613dc0820152613d40810151613de0820152613d60810151613e008201528160016040613da084016080613da0860160065afa14169150610860810151613e20820152610880810151613e40820152612d20810151613e608201528160016040613e2084016060613e20860160075afa14169150613da0810151613e80820152613dc0810151613ea0820152613e20810151613ec0820152613e40810151613ee08201528160016040613e8084016080613e80860160065afa141691506108a0810151613f008201526108c0810151613f20820152612d60810151613f408201528160016040613f0084016060613f00860160075afa14169150613e80810151613f60820152613ea0810151613f80820152613f00810151613fa0820152613f20810151613fc08201528160016040613f6084016080613f60860160065afa141691506108e0810151613fe0820152610900810151614000820152612da08101516140208201528160016040613fe084016060613fe0860160075afa14169150613f60810151614040820152613f80810151614060820152613fe08101516140808201526140008101516140a0820152816001604061404084016080614040860160065afa141691506109208101516140c08201526109408101516140e0820152612de081015161410082015281600160406140c0840160606140c0860160075afa141691506140408101516141208201526140608101516141408201526140c08101516141608201526140e0810151614180820152816001604061412084016080614120860160065afa141691506108608101516141a08201526108808101516141c0820152612a008101516141e082015281600160406141a0840160606141a0860160075afa141691506108208101516142008201526108408101516142208201526141a08101516142408201526141c0810151614260820152816001604061420084016080614200860160065afa141691506108a08101516142808201526108c08101516142a0820152612b208101516142c0820152816001604061428084016060614280860160075afa141691506142008101516142e08201526142208101516143008201526142808101516143208201526142a081015161434082015281600160406142e0840160806142e0860160065afa141691506108e0810151614360820152610900810151614380820152612bc08101516143a0820152816001604061436084016060614360860160075afa141691506142e08101516143c08201526143008101516143e082015261436081015161440082015261438081015161442082015281600160406143c0840160806143c0860160065afa14169150610920810151614440820152610940810151614460820152612c60810151614480820152816001604061444084016060614440860160075afa141691506143c08101516144a08201526143e08101516144c08201526144408101516144e082015261446081015161450082015281600160406144a0840160806144a0860160065afa141691506141208101516145208201526141408101516145408201527f198e9393920d483a7260bfb731fb5d25f1aa493335a9e71297e485b7aef312c26145608201527f1800deef121f1e76426a00665e5c4479674322d4f75edadd46debd5cd992f6ed6145808201527f090689d0585ff075ec9e99ad690c3395bc4b313370b38ef355acdadcd122975b6145a08201527f12c85ea5db8c6deb4aab71808dcb408fe3d1e7690c43d37b4ce6cc0166fa7daa6145c08201526144a08101516145e08201526144c08101516146008201527f1a841de4ef28295bb0f595db8ba843466c05ba433095a9bf6603d334a58fa4a06146208201527f0ed2763108f401e9a91572f9a492ffff2c1c48e8230c2f39297a278ed1316bd56146408201527f24b642f23220c156d35570de68511f3a2540741cd5cd485ffc3e1ff3599c00f26146608201527f25cdb46289be9daf2bd56f895e4f15101e47481acaf36c393c08bd0de206ca0561468082015281600160206145208401610180614520860160085afa6145209390930151600114921416169150505b92915050565b604051806146800160405280610234906020820280368337509192915050565b634e487b7160e01b600052604160045260246000fd5b604051601f8201601f1916810167ffffffffffffffff811182821017156139f2576139f26139b3565b604052919050565b600082601f830112613a0b57600080fd5b813567ffffffffffffffff811115613a2557613a256139b3565b613a38601f8201601f19166020016139c9565b818152846020838601011115613a4d57600080fd5b816020850160208301376000918101602001919091529392505050565b600080600080600060a08688031215613a8257600080fd5b853594506020860135935060408601359250606086013567ffffffffffffffff80821115613aaf57600080fd5b613abb89838a016139fa565b93506080880135915080821115613ad157600080fd5b50613ade888289016139fa565b9150509295509295909350565b80356001600160a01b0381168114613b0257600080fd5b919050565b600060208284031215613b1957600080fd5b613b2282613aeb565b9392505050565b60018060a01b038516815260006020858184015284604084015260806060840152835180608085015260005b81811015613b715785810183015185820160a001528201613b55565b50600060a0828601015260a0601f19601f8301168501019250505095945050505050565b60008083601f840112613ba757600080fd5b50813567ffffffffffffffff811115613bbf57600080fd5b602083019150836020828501011115613bd757600080fd5b9250929050565b60008060008060608587031215613bf457600080fd5b613bfd85613aeb565b935060208501359250604085013567ffffffffffffffff811115613c2057600080fd5b613c2c87828801613b95565b95989497509550505050565b600080600080600060808688031215613c5057600080fd5b613c5986613aeb565b94506020860135935060408601359250606086013567ffffffffffffffff811115613c8357600080fd5b613c8f88828901613b95565b969995985093965092949392505050565b600060208284031215613cb257600080fd5b5035919050565b60008060408385031215613ccc57600080fd5b823567ffffffffffffffff80821115613ce457600080fd5b818501915085601f830112613cf857600080fd5b8135602082821115613d0c57613d0c6139b3565b8160051b613d1b8282016139c9565b928352848101820192828101908a851115613d3557600080fd5b958301955b84871015613d5357863582529583019590830190613d3a565b9750505086013592505080821115613d6a57600080fd5b50613d77858286016139fa565b9150509250929050565b634e487b7160e01b600052601160045260246000fd5b8082018082111561398d5761398d613d81565b634e487b7160e01b600052603260045260246000fd5b600082613ddd57634e487b7160e01b600052601260045260246000fd5b500490565b808202811582820484141761398d5761398d613d81565b600060018201613e0b57613e0b613d81565b5060010190565b600181811c90821680613e2657607f821691505b602082108103613e4657634e487b7160e01b600052602260045260246000fd5b50919050565b601f821115613e9657600081815260208120601f850160051c81016020861015613e735750805b601f850160051c820191505b81811015613e9257828155600101613e7f565b5050505b505050565b815167ffffffffffffffff811115613eb557613eb56139b3565b613ec981613ec38454613e12565b84613e4c565b602080601f831160018114613efe5760008415613ee65750858301515b600019600386901b1c1916600185901b178555613e92565b600085815260208120601f198616915b82811015613f2d57888601518255948401946001909101908401613f0e565b5085821015613f4b5787850151600019600388901b60f8161c191681555b5050505050600190811b0190555056fe30644e72e131a029b85045b68181585d97816a916871ca8d3c208c16d87cfd47a2646970667358221220f93ac99946fbcba6bc31372704e32abb5c6e1078a45a7c78d306791969546f4d64736f6c63430008120033",
  "linkReferences": {},
  "deployedLinkReferences": {}
}