{
  "_format": "hh-sol-artifact-1",
  "contractName": "Verifier",
  "sourceName": "contracts/Verifier.sol",
  "abi": [
    {
      "inputs": [
        {
          "internalType": "uint256",
          "name": "_wordSize",
          "type": "uint256"
        },
        {
          "internalType": "uint256",
          "name": "_maxMsgSize",
          "type": "uint256"
        }
      ],
      "stateMutability": "nonpayable",
      "type": "constructor"
    },
    {
      "inputs": [
        {
          "internalType": "bytes",
          "name": "commitment",
          "type": "bytes"
        },
        {
          "internalType": "bytes32",
          "name": "featureHash",
          "type": "bytes32"
        },
        {
          "internalType": "bytes",
          "name": "message",
          "type": "bytes"
        },
        {
          "internalType": "bytes32",
          "name": "messageHash",
          "type": "bytes32"
        },
        {
          "internalType": "bytes",
          "name": "proof",
          "type": "bytes"
        }
      ],
      "name": "verify",
      "outputs": [
        {
          "internalType": "bool",
          "name": "",
          "type": "bool"
        }
      ],
      "stateMutability": "view",
      "type": "function"
    }
  ],
  "bytecode": "0x608060405234801561001057600080fd5b50604051610b13380380610b1383398181016040528101906100329190610082565b816001819055508060028190555050506100c2565b600080fd5b6000819050919050565b61005f8161004c565b811461006a57600080fd5b50565b60008151905061007c81610056565b92915050565b6000806040838503121561009957610098610047565b5b60006100a78582860161006d565b92505060206100b88582860161006d565b9150509250929050565b610a42806100d16000396000f3fe608060405234801561001057600080fd5b506004361061002b5760003560e01c80639a4ab9b614610030575b600080fd5b61004a600480360381019061004591906106e4565b610060565b60405161005791906107d1565b60405180910390f35b60008060015460206100729190610825565b67ffffffffffffffff81111561008b5761008a610523565b5b6040519080825280601f01601f1916602001820160405280156100bd5781602001600182028036833780820191505090505b50905060005b8851811015610157578181815181106100df576100de610867565b5b602001015160f81c60f81b82601f8360206100fa9190610825565b6101049190610896565b8151811061011557610114610867565b5b60200101907effffffffffffffffffffffffffffffffffffffffffffffffffffffffffffff1916908160001a905350808061014f906108ca565b9150506100c3565b50600061040067ffffffffffffffff81111561017657610175610523565b5b6040519080825280601f01601f1916602001820160405280156101a85781602001600182028036833780820191505090505b50905060005b602081101561023b578881602081106101ca576101c9610867565b5b1a60f81b82601f8360206101de9190610825565b6101e89190610896565b815181106101f9576101f8610867565b5b60200101907effffffffffffffffffffffffffffffffffffffffffffffffffffffffffffff1916908160001a9053508080610233906108ca565b9150506101ae565b506000600254602061024d9190610825565b67ffffffffffffffff81111561026657610265610523565b5b6040519080825280601f01601f1916602001820160405280156102985781602001600182028036833780820191505090505b50905060005b8151811015610332578881815181106102ba576102b9610867565b5b602001015160f81c60f81b82601f8360206102d59190610825565b6102df9190610896565b815181106102f0576102ef610867565b5b60200101907effffffffffffffffffffffffffffffffffffffffffffffffffffffffffffff1916908160001a905350808061032a906108ca565b91505061029e565b50600061040067ffffffffffffffff81111561035157610350610523565b5b6040519080825280601f01601f1916602001820160405280156103835781602001600182028036833780820191505090505b50905060005b6020811015610416578881602081106103a5576103a4610867565b5b1a60f81b82601f8360206103b99190610825565b6103c39190610896565b815181106103d4576103d3610867565b5b60200101907effffffffffffffffffffffffffffffffffffffffffffffffffffffffffffff1916908160001a905350808061040e906108ca565b915050610389565b506000848484848b8b604051602001610434969594939291906109a8565b604051602081830303815290604052905061044e8161045f565b955050505050509695505050505050565b60008060008054906101000a900473ffffffffffffffffffffffffffffffffffffffff1673ffffffffffffffffffffffffffffffffffffffff16836040516104a791906109f5565b600060405180830381855afa9150503d80600081146104e2576040519150601f19603f3d011682016040523d82523d6000602084013e6104e7565b606091505b5050905080915050919050565b6000604051905090565b600080fd5b600080fd5b600080fd5b600080fd5b6000601f19601f8301169050919050565b7f4e487b7100000000000000000000000000000000000000000000000000000000600052604160045260246000fd5b61055b82610512565b810181811067ffffffffffffffff8211171561057a57610579610523565b5b80604052505050565b600061058d6104f4565b90506105998282610552565b919050565b600067ffffffffffffffff8211156105b9576105b8610523565b5b6105c282610512565b9050602081019050919050565b82818337600083830152505050565b60006105f16105ec8461059e565b610583565b90508281526020810184848401111561060d5761060c61050d565b5b6106188482856105cf565b509392505050565b600082601f83011261063557610634610508565b5b81356106458482602086016105de565b91505092915050565b6000819050919050565b6106618161064e565b811461066c57600080fd5b50565b60008135905061067e81610658565b92915050565b600080fd5b600080fd5b60008083601f8401126106a4576106a3610508565b5b8235905067ffffffffffffffff8111156106c1576106c0610684565b5b6020830191508360018202830111156106dd576106dc610689565b5b9250929050565b60008060008060008060a08789031215610701576107006104fe565b5b600087013567ffffffffffffffff81111561071f5761071e610503565b5b61072b89828a01610620565b965050602061073c89828a0161066f565b955050604087013567ffffffffffffffff81111561075d5761075c610503565b5b61076989828a01610620565b945050606061077a89828a0161066f565b935050608087013567ffffffffffffffff81111561079b5761079a610503565b5b6107a789828a0161068e565b92509250509295509295509295565b60008115159050919050565b6107cb816107b6565b82525050565b60006020820190506107e660008301846107c2565b92915050565b6000819050919050565b7f4e487b7100000000000000000000000000000000000000000000000000000000600052601160045260246000fd5b6000610830826107ec565b915061083b836107ec565b9250828202610849816107ec565b915082820484148315176108605761085f6107f6565b5b5092915050565b7f4e487b7100000000000000000000000000000000000000000000000000000000600052603260045260246000fd5b60006108a1826107ec565b91506108ac836107ec565b92508282019050808211156108c4576108c36107f6565b5b92915050565b60006108d5826107ec565b91507fffffffffffffffffffffffffffffffffffffffffffffffffffffffffffffffff8203610907576109066107f6565b5b600182019050919050565b600081519050919050565b600081905092915050565b60005b8381101561094657808201518184015260208101905061092b565b60008484015250505050565b600061095d82610912565b610967818561091d565b9350610977818560208601610928565b80840191505092915050565b600061098f838561091d565b935061099c8385846105cf565b82840190509392505050565b60006109b48289610952565b91506109c08288610952565b91506109cc8287610952565b91506109d88286610952565b91506109e5828486610983565b9150819050979650505050505050565b6000610a018284610952565b91508190509291505056fea264697066735822122061a9c2e34e347ce46a215d78baa4e78bd95d5bb3a21324eb61a309abf8f3afa864736f6c63430008110033",
  "linkReferences": {},
  "deployedLinkReferences": {}
}